{
  "_format": "hh-sol-artifact-1",
  "contractName": "ProofOfDonationNFT1",
  "sourceName": "contracts/ProofOfDonationNFT1.sol",
  "abi": [
    {
      "inputs": [],
      "stateMutability": "nonpayable",
      "type": "constructor"
    },
    {
      "inputs": [
        {
          "internalType": "address",
          "name": "sender",
          "type": "address"
        },
        {
          "internalType": "uint256",
          "name": "balance",
          "type": "uint256"
        },
        {
          "internalType": "uint256",
          "name": "needed",
          "type": "uint256"
        },
        {
          "internalType": "uint256",
          "name": "tokenId",
          "type": "uint256"
        }
      ],
      "name": "ERC1155InsufficientBalance",
      "type": "error"
    },
    {
      "inputs": [
        {
          "internalType": "address",
          "name": "approver",
          "type": "address"
        }
      ],
      "name": "ERC1155InvalidApprover",
      "type": "error"
    },
    {
      "inputs": [
        {
          "internalType": "uint256",
          "name": "idsLength",
          "type": "uint256"
        },
        {
          "internalType": "uint256",
          "name": "valuesLength",
          "type": "uint256"
        }
      ],
      "name": "ERC1155InvalidArrayLength",
      "type": "error"
    },
    {
      "inputs": [
        {
          "internalType": "address",
          "name": "operator",
          "type": "address"
        }
      ],
      "name": "ERC1155InvalidOperator",
      "type": "error"
    },
    {
      "inputs": [
        {
          "internalType": "address",
          "name": "receiver",
          "type": "address"
        }
      ],
      "name": "ERC1155InvalidReceiver",
      "type": "error"
    },
    {
      "inputs": [
        {
          "internalType": "address",
          "name": "sender",
          "type": "address"
        }
      ],
      "name": "ERC1155InvalidSender",
      "type": "error"
    },
    {
      "inputs": [
        {
          "internalType": "address",
          "name": "operator",
          "type": "address"
        },
        {
          "internalType": "address",
          "name": "owner",
          "type": "address"
        }
      ],
      "name": "ERC1155MissingApprovalForAll",
      "type": "error"
    },
    {
      "inputs": [
        {
          "internalType": "address",
          "name": "owner",
          "type": "address"
        }
      ],
      "name": "OwnableInvalidOwner",
      "type": "error"
    },
    {
      "inputs": [
        {
          "internalType": "address",
          "name": "account",
          "type": "address"
        }
      ],
      "name": "OwnableUnauthorizedAccount",
      "type": "error"
    },
    {
      "anonymous": false,
      "inputs": [
        {
          "indexed": true,
          "internalType": "address",
          "name": "account",
          "type": "address"
        },
        {
          "indexed": true,
          "internalType": "address",
          "name": "operator",
          "type": "address"
        },
        {
          "indexed": false,
          "internalType": "bool",
          "name": "approved",
          "type": "bool"
        }
      ],
      "name": "ApprovalForAll",
      "type": "event"
    },
    {
      "anonymous": false,
      "inputs": [
        {
          "indexed": true,
          "internalType": "address",
          "name": "to",
          "type": "address"
        },
        {
          "indexed": false,
          "internalType": "uint256[]",
          "name": "ids",
          "type": "uint256[]"
        },
        {
          "indexed": false,
          "internalType": "uint256[]",
          "name": "amounts",
          "type": "uint256[]"
        }
      ],
      "name": "MintedBatch",
      "type": "event"
    },
    {
      "anonymous": false,
      "inputs": [
        {
          "indexed": true,
          "internalType": "address",
          "name": "previousOwner",
          "type": "address"
        },
        {
          "indexed": true,
          "internalType": "address",
          "name": "newOwner",
          "type": "address"
        }
      ],
      "name": "OwnershipTransferred",
      "type": "event"
    },
    {
      "anonymous": false,
      "inputs": [
        {
          "indexed": true,
          "internalType": "address",
          "name": "operator",
          "type": "address"
        },
        {
          "indexed": true,
          "internalType": "address",
          "name": "from",
          "type": "address"
        },
        {
          "indexed": true,
          "internalType": "address",
          "name": "to",
          "type": "address"
        },
        {
          "indexed": false,
          "internalType": "uint256[]",
          "name": "ids",
          "type": "uint256[]"
        },
        {
          "indexed": false,
          "internalType": "uint256[]",
          "name": "values",
          "type": "uint256[]"
        }
      ],
      "name": "TransferBatch",
      "type": "event"
    },
    {
      "anonymous": false,
      "inputs": [
        {
          "indexed": true,
          "internalType": "address",
          "name": "operator",
          "type": "address"
        },
        {
          "indexed": true,
          "internalType": "address",
          "name": "from",
          "type": "address"
        },
        {
          "indexed": true,
          "internalType": "address",
          "name": "to",
          "type": "address"
        },
        {
          "indexed": false,
          "internalType": "uint256",
          "name": "id",
          "type": "uint256"
        },
        {
          "indexed": false,
          "internalType": "uint256",
          "name": "value",
          "type": "uint256"
        }
      ],
      "name": "TransferSingle",
      "type": "event"
    },
    {
      "anonymous": false,
      "inputs": [
        {
          "indexed": false,
          "internalType": "string",
          "name": "value",
          "type": "string"
        },
        {
          "indexed": true,
          "internalType": "uint256",
          "name": "id",
          "type": "uint256"
        }
      ],
      "name": "URI",
      "type": "event"
    },
    {
      "inputs": [
        {
          "internalType": "address",
          "name": "account",
          "type": "address"
        },
        {
          "internalType": "uint256",
          "name": "id",
          "type": "uint256"
        }
      ],
      "name": "balanceOf",
      "outputs": [
        {
          "internalType": "uint256",
          "name": "",
          "type": "uint256"
        }
      ],
      "stateMutability": "view",
      "type": "function"
    },
    {
      "inputs": [
        {
          "internalType": "address[]",
          "name": "accounts",
          "type": "address[]"
        },
        {
          "internalType": "uint256[]",
          "name": "ids",
          "type": "uint256[]"
        }
      ],
      "name": "balanceOfBatch",
      "outputs": [
        {
          "internalType": "uint256[]",
          "name": "",
          "type": "uint256[]"
        }
      ],
      "stateMutability": "view",
      "type": "function"
    },
    {
      "inputs": [
        {
          "internalType": "address",
          "name": "account",
          "type": "address"
        },
        {
          "internalType": "address",
          "name": "operator",
          "type": "address"
        }
      ],
      "name": "isApprovedForAll",
      "outputs": [
        {
          "internalType": "bool",
          "name": "",
          "type": "bool"
        }
      ],
      "stateMutability": "view",
      "type": "function"
    },
    {
      "inputs": [
        {
          "internalType": "address",
          "name": "to",
          "type": "address"
        },
        {
          "internalType": "uint256[]",
          "name": "ids",
          "type": "uint256[]"
        },
        {
          "internalType": "uint256[]",
          "name": "amounts",
          "type": "uint256[]"
        },
        {
          "internalType": "string[]",
          "name": "newURIs",
          "type": "string[]"
        },
        {
          "internalType": "bytes",
          "name": "data",
          "type": "bytes"
        }
      ],
      "name": "mintBatch",
      "outputs": [],
      "stateMutability": "nonpayable",
      "type": "function"
    },
    {
      "inputs": [],
      "name": "owner",
      "outputs": [
        {
          "internalType": "address",
          "name": "",
          "type": "address"
        }
      ],
      "stateMutability": "view",
      "type": "function"
    },
    {
      "inputs": [],
      "name": "renounceOwnership",
      "outputs": [],
      "stateMutability": "nonpayable",
      "type": "function"
    },
    {
      "inputs": [
        {
          "internalType": "address",
          "name": "from",
          "type": "address"
        },
        {
          "internalType": "address",
          "name": "to",
          "type": "address"
        },
        {
          "internalType": "uint256[]",
          "name": "ids",
          "type": "uint256[]"
        },
        {
          "internalType": "uint256[]",
          "name": "values",
          "type": "uint256[]"
        },
        {
          "internalType": "bytes",
          "name": "data",
          "type": "bytes"
        }
      ],
      "name": "safeBatchTransferFrom",
      "outputs": [],
      "stateMutability": "nonpayable",
      "type": "function"
    },
    {
      "inputs": [
        {
          "internalType": "address",
          "name": "from",
          "type": "address"
        },
        {
          "internalType": "address",
          "name": "to",
          "type": "address"
        },
        {
          "internalType": "uint256",
          "name": "id",
          "type": "uint256"
        },
        {
          "internalType": "uint256",
          "name": "value",
          "type": "uint256"
        },
        {
          "internalType": "bytes",
          "name": "data",
          "type": "bytes"
        }
      ],
      "name": "safeTransferFrom",
      "outputs": [],
      "stateMutability": "nonpayable",
      "type": "function"
    },
    {
      "inputs": [
        {
          "internalType": "address",
          "name": "operator",
          "type": "address"
        },
        {
          "internalType": "bool",
          "name": "approved",
          "type": "bool"
        }
      ],
      "name": "setApprovalForAll",
      "outputs": [],
      "stateMutability": "nonpayable",
      "type": "function"
    },
    {
      "inputs": [
        {
          "internalType": "uint256",
          "name": "tokenId",
          "type": "uint256"
        },
        {
          "internalType": "string",
          "name": "newURI",
          "type": "string"
        }
      ],
      "name": "setTokenURI",
      "outputs": [],
      "stateMutability": "nonpayable",
      "type": "function"
    },
    {
      "inputs": [
        {
          "internalType": "bytes4",
          "name": "interfaceId",
          "type": "bytes4"
        }
      ],
      "name": "supportsInterface",
      "outputs": [
        {
          "internalType": "bool",
          "name": "",
          "type": "bool"
        }
      ],
      "stateMutability": "view",
      "type": "function"
    },
    {
      "inputs": [
        {
          "internalType": "address",
          "name": "newOwner",
          "type": "address"
        }
      ],
      "name": "transferOwnership",
      "outputs": [],
      "stateMutability": "nonpayable",
      "type": "function"
    },
    {
      "inputs": [
        {
          "internalType": "uint256",
          "name": "tokenId",
          "type": "uint256"
        }
      ],
      "name": "uri",
      "outputs": [
        {
          "internalType": "string",
          "name": "",
          "type": "string"
        }
      ],
      "stateMutability": "view",
      "type": "function"
    }
  ],
  "bytecode": "0x60806040523480156200001157600080fd5b50336040518060600160405280602281526020016200324f602291396200003e81620000cc60201b60201c565b50600073ffffffffffffffffffffffffffffffffffffffff168173ffffffffffffffffffffffffffffffffffffffff1603620000b45760006040517f1e4fbdf7000000000000000000000000000000000000000000000000000000008152600401620000ab9190620001ec565b60405180910390fd5b620000c581620000e160201b60201c565b506200056a565b8060029081620000dd919062000483565b5050565b6000600360009054906101000a900473ffffffffffffffffffffffffffffffffffffffff16905081600360006101000a81548173ffffffffffffffffffffffffffffffffffffffff021916908373ffffffffffffffffffffffffffffffffffffffff1602179055508173ffffffffffffffffffffffffffffffffffffffff168173ffffffffffffffffffffffffffffffffffffffff167f8be0079c531659141344cd1fd0a4f28419497f9722a3daafe3b4186f6b6457e060405160405180910390a35050565b600073ffffffffffffffffffffffffffffffffffffffff82169050919050565b6000620001d482620001a7565b9050919050565b620001e681620001c7565b82525050565b6000602082019050620002036000830184620001db565b92915050565b600081519050919050565b7f4e487b7100000000000000000000000000000000000000000000000000000000600052604160045260246000fd5b7f4e487b7100000000000000000000000000000000000000000000000000000000600052602260045260246000fd5b600060028204905060018216806200028b57607f821691505b602082108103620002a157620002a062000243565b5b50919050565b60008190508160005260206000209050919050565b60006020601f8301049050919050565b600082821b905092915050565b6000600883026200030b7fffffffffffffffffffffffffffffffffffffffffffffffffffffffffffffffff82620002cc565b620003178683620002cc565b95508019841693508086168417925050509392505050565b6000819050919050565b6000819050919050565b6000620003646200035e62000358846200032f565b62000339565b6200032f565b9050919050565b6000819050919050565b620003808362000343565b620003986200038f826200036b565b848454620002d9565b825550505050565b600090565b620003af620003a0565b620003bc81848462000375565b505050565b5b81811015620003e457620003d8600082620003a5565b600181019050620003c2565b5050565b601f8211156200043357620003fd81620002a7565b6200040884620002bc565b8101602085101562000418578190505b620004306200042785620002bc565b830182620003c1565b50505b505050565b600082821c905092915050565b6000620004586000198460080262000438565b1980831691505092915050565b600062000473838362000445565b9150826002028217905092915050565b6200048e8262000209565b67ffffffffffffffff811115620004aa57620004a962000214565b5b620004b6825462000272565b620004c3828285620003e8565b600060209050601f831160018114620004fb5760008415620004e6578287015190505b620004f2858262000465565b86555062000562565b601f1984166200050b86620002a7565b60005b8281101562000535578489015182556001820191506020850194506020810190506200050e565b8683101562000555578489015162000551601f89168262000445565b8355505b6001600288020188555050505b505050505050565b612cd5806200057a6000396000f3fe608060405234801561001057600080fd5b50600436106100ce5760003560e01c8063715018a61161008c578063b9571e8411610066578063b9571e841461020f578063e985e9c51461022b578063f242432a1461025b578063f2fde38b14610277576100ce565b8063715018a6146101cb5780638da5cb5b146101d5578063a22cb465146101f3576100ce565b8062fdd58e146100d357806301ffc9a7146101035780630e89341c14610133578063162094c4146101635780632eb2c2d61461017f5780634e1273f41461019b575b600080fd5b6100ed60048036038101906100e8919061192a565b610293565b6040516100fa9190611979565b60405180910390f35b61011d600480360381019061011891906119ec565b6102ed565b60405161012a9190611a34565b60405180910390f35b61014d60048036038101906101489190611a4f565b6103cf565b60405161015a9190611b0c565b60405180910390f35b61017d60048036038101906101789190611c63565b610474565b005b61019960048036038101906101949190611e28565b61051d565b005b6101b560048036038101906101b09190611fba565b6105c5565b6040516101c291906120f0565b60405180910390f35b6101d36106d4565b005b6101dd6106e8565b6040516101ea9190612121565b60405180910390f35b61020d60048036038101906102089190612168565b610712565b005b61022960048036038101906102249190612289565b610728565b005b61024560048036038101906102409190612374565b6108e8565b6040516102529190611a34565b60405180910390f35b610275600480360381019061027091906123b4565b61097c565b005b610291600480360381019061028c919061244b565b610a24565b005b600080600083815260200190815260200160002060008473ffffffffffffffffffffffffffffffffffffffff1673ffffffffffffffffffffffffffffffffffffffff16815260200190815260200160002054905092915050565b60007fd9b67a26000000000000000000000000000000000000000000000000000000007bffffffffffffffffffffffffffffffffffffffffffffffffffffffff1916827bffffffffffffffffffffffffffffffffffffffffffffffffffffffff191614806103b857507f0e89341c000000000000000000000000000000000000000000000000000000007bffffffffffffffffffffffffffffffffffffffffffffffffffffffff1916827bffffffffffffffffffffffffffffffffffffffffffffffffffffffff1916145b806103c857506103c782610aaa565b5b9050919050565b60606004600083815260200190815260200160002080546103ef906124a7565b80601f016020809104026020016040519081016040528092919081815260200182805461041b906124a7565b80156104685780601f1061043d57610100808354040283529160200191610468565b820191906000526020600020905b81548152906001019060200180831161044b57829003601f168201915b50505050509050919050565b61047c610b14565b60008151116104c0576040517f08c379a00000000000000000000000000000000000000000000000000000000081526004016104b79061254a565b60405180910390fd5b806004600084815260200190815260200160002090816104e09190612716565b50817f6bb7ff708619ba0610cba295a58592e0451dee2622938c8755667688daf3529b826040516105119190611b0c565b60405180910390a25050565b6000610527610b9b565b90508073ffffffffffffffffffffffffffffffffffffffff168673ffffffffffffffffffffffffffffffffffffffff161415801561056c575061056a86826108e8565b155b156105b05780866040517fe237d9220000000000000000000000000000000000000000000000000000000081526004016105a79291906127e8565b60405180910390fd5b6105bd8686868686610ba3565b505050505050565b6060815183511461061157815183516040517f5b059991000000000000000000000000000000000000000000000000000000008152600401610608929190612811565b60405180910390fd5b6000835167ffffffffffffffff81111561062e5761062d611b38565b5b60405190808252806020026020018201604052801561065c5781602001602082028036833780820191505090505b50905060005b84518110156106c9576106996106818287610c9b90919063ffffffff16565b6106948387610caf90919063ffffffff16565b610293565b8282815181106106ac576106ab61283a565b5b602002602001018181525050806106c290612898565b9050610662565b508091505092915050565b6106dc610b14565b6106e66000610cc3565b565b6000600360009054906101000a900473ffffffffffffffffffffffffffffffffffffffff16905090565b61072461071d610b9b565b8383610d89565b5050565b610730610b14565b600073ffffffffffffffffffffffffffffffffffffffff168573ffffffffffffffffffffffffffffffffffffffff160361079f576040517f08c379a000000000000000000000000000000000000000000000000000000000815260040161079690612952565b60405180910390fd5b82518451146107e3576040517f08c379a00000000000000000000000000000000000000000000000000000000081526004016107da906129e4565b60405180910390fd5b8151845114610827576040517f08c379a000000000000000000000000000000000000000000000000000000000815260040161081e90612a76565b60405180910390fd5b61083385858584610ef9565b60005b84518110156108905761087d8582815181106108555761085461283a565b5b60200260200101518483815181106108705761086f61283a565b5b6020026020010151610474565b808061088890612898565b915050610836565b508473ffffffffffffffffffffffffffffffffffffffff167f9d15fe863d6d778932c2425aab5de66f2fcc03f779b90c593d26ee152fbbe87185856040516108d9929190612a96565b60405180910390a25050505050565b6000600160008473ffffffffffffffffffffffffffffffffffffffff1673ffffffffffffffffffffffffffffffffffffffff16815260200190815260200160002060008373ffffffffffffffffffffffffffffffffffffffff1673ffffffffffffffffffffffffffffffffffffffff16815260200190815260200160002060009054906101000a900460ff16905092915050565b6000610986610b9b565b90508073ffffffffffffffffffffffffffffffffffffffff168673ffffffffffffffffffffffffffffffffffffffff16141580156109cb57506109c986826108e8565b155b15610a0f5780866040517fe237d922000000000000000000000000000000000000000000000000000000008152600401610a069291906127e8565b60405180910390fd5b610a1c8686868686610f7f565b505050505050565b610a2c610b14565b600073ffffffffffffffffffffffffffffffffffffffff168173ffffffffffffffffffffffffffffffffffffffff1603610a9e5760006040517f1e4fbdf7000000000000000000000000000000000000000000000000000000008152600401610a959190612121565b60405180910390fd5b610aa781610cc3565b50565b60007f01ffc9a7000000000000000000000000000000000000000000000000000000007bffffffffffffffffffffffffffffffffffffffffffffffffffffffff1916827bffffffffffffffffffffffffffffffffffffffffffffffffffffffff1916149050919050565b610b1c610b9b565b73ffffffffffffffffffffffffffffffffffffffff16610b3a6106e8565b73ffffffffffffffffffffffffffffffffffffffff1614610b9957610b5d610b9b565b6040517f118cdaa7000000000000000000000000000000000000000000000000000000008152600401610b909190612121565b60405180910390fd5b565b600033905090565b600073ffffffffffffffffffffffffffffffffffffffff168473ffffffffffffffffffffffffffffffffffffffff1603610c155760006040517f57f447ce000000000000000000000000000000000000000000000000000000008152600401610c0c9190612121565b60405180910390fd5b600073ffffffffffffffffffffffffffffffffffffffff168573ffffffffffffffffffffffffffffffffffffffff1603610c875760006040517f01a83514000000000000000000000000000000000000000000000000000000008152600401610c7e9190612121565b60405180910390fd5b610c94858585858561108a565b5050505050565b600060208202602084010151905092915050565b600060208202602084010151905092915050565b6000600360009054906101000a900473ffffffffffffffffffffffffffffffffffffffff16905081600360006101000a81548173ffffffffffffffffffffffffffffffffffffffff021916908373ffffffffffffffffffffffffffffffffffffffff1602179055508173ffffffffffffffffffffffffffffffffffffffff168173ffffffffffffffffffffffffffffffffffffffff167f8be0079c531659141344cd1fd0a4f28419497f9722a3daafe3b4186f6b6457e060405160405180910390a35050565b600073ffffffffffffffffffffffffffffffffffffffff168273ffffffffffffffffffffffffffffffffffffffff1603610dfb5760006040517fced3e100000000000000000000000000000000000000000000000000000000008152600401610df29190612121565b60405180910390fd5b80600160008573ffffffffffffffffffffffffffffffffffffffff1673ffffffffffffffffffffffffffffffffffffffff16815260200190815260200160002060008473ffffffffffffffffffffffffffffffffffffffff1673ffffffffffffffffffffffffffffffffffffffff16815260200190815260200160002060006101000a81548160ff0219169083151502179055508173ffffffffffffffffffffffffffffffffffffffff168373ffffffffffffffffffffffffffffffffffffffff167f17307eab39ab6107e8899845ad3d59bd9653f200f220920489ca2b5937696c3183604051610eec9190611a34565b60405180910390a3505050565b600073ffffffffffffffffffffffffffffffffffffffff168473ffffffffffffffffffffffffffffffffffffffff1603610f6b5760006040517f57f447ce000000000000000000000000000000000000000000000000000000008152600401610f629190612121565b60405180910390fd5b610f7960008585858561108a565b50505050565b600073ffffffffffffffffffffffffffffffffffffffff168473ffffffffffffffffffffffffffffffffffffffff1603610ff15760006040517f57f447ce000000000000000000000000000000000000000000000000000000008152600401610fe89190612121565b60405180910390fd5b600073ffffffffffffffffffffffffffffffffffffffff168573ffffffffffffffffffffffffffffffffffffffff16036110635760006040517f01a8351400000000000000000000000000000000000000000000000000000000815260040161105a9190612121565b60405180910390fd5b600080611070858561113c565b91509150611081878784848761108a565b50505050505050565b6110968585858561116c565b600073ffffffffffffffffffffffffffffffffffffffff168473ffffffffffffffffffffffffffffffffffffffff16146111355760006110d4610b9b565b905060018451036111245760006110f5600086610caf90919063ffffffff16565b9050600061110d600086610caf90919063ffffffff16565b905061111d83898985858961151a565b5050611133565b6111328187878787876116ce565b5b505b5050505050565b60608060405191506001825283602083015260408201905060018152826020820152604081016040529250929050565b80518251146111b657815181516040517f5b0599910000000000000000000000000000000000000000000000000000000081526004016111ad929190612811565b60405180910390fd5b60006111c0610b9b565b905060005b83518110156113d55760006111e38286610caf90919063ffffffff16565b905060006111fa8386610caf90919063ffffffff16565b9050600073ffffffffffffffffffffffffffffffffffffffff168873ffffffffffffffffffffffffffffffffffffffff161461132757600080600084815260200190815260200160002060008a73ffffffffffffffffffffffffffffffffffffffff1673ffffffffffffffffffffffffffffffffffffffff168152602001908152602001600020549050818110156112cf57888183856040517f03dee4c50000000000000000000000000000000000000000000000000000000081526004016112c69493929190612acd565b60405180910390fd5b81810360008085815260200190815260200160002060008b73ffffffffffffffffffffffffffffffffffffffff1673ffffffffffffffffffffffffffffffffffffffff16815260200190815260200160002081905550505b600073ffffffffffffffffffffffffffffffffffffffff168773ffffffffffffffffffffffffffffffffffffffff16146113c2578060008084815260200190815260200160002060008973ffffffffffffffffffffffffffffffffffffffff1673ffffffffffffffffffffffffffffffffffffffff16815260200190815260200160002060008282546113ba9190612b12565b925050819055505b5050806113ce90612898565b90506111c5565b5060018351036114945760006113f5600085610caf90919063ffffffff16565b9050600061140d600085610caf90919063ffffffff16565b90508573ffffffffffffffffffffffffffffffffffffffff168773ffffffffffffffffffffffffffffffffffffffff168473ffffffffffffffffffffffffffffffffffffffff167fc3d58168c5ae7397731d063d5bbf3d657854427343f4c083240f7aacaa2d0f628585604051611485929190612811565b60405180910390a45050611513565b8373ffffffffffffffffffffffffffffffffffffffff168573ffffffffffffffffffffffffffffffffffffffff168273ffffffffffffffffffffffffffffffffffffffff167f4a39dc06d4c0dbc64b70af90fd698a233a518aa5d07e595d983b8c0526c8f7fb868660405161150a929190612a96565b60405180910390a45b5050505050565b60008473ffffffffffffffffffffffffffffffffffffffff163b11156116c6578373ffffffffffffffffffffffffffffffffffffffff1663f23a6e6187878686866040518663ffffffff1660e01b815260040161157b959493929190612b9b565b6020604051808303816000875af19250505080156115b757506040513d601f19601f820116820180604052508101906115b49190612c0a565b60015b61163b573d80600081146115e7576040519150601f19603f3d011682016040523d82523d6000602084013e6115ec565b606091505b50600081510361163357846040517f57f447ce00000000000000000000000000000000000000000000000000000000815260040161162a9190612121565b60405180910390fd5b805181602001fd5b63f23a6e6160e01b7bffffffffffffffffffffffffffffffffffffffffffffffffffffffff1916817bffffffffffffffffffffffffffffffffffffffffffffffffffffffff1916146116c457846040517f57f447ce0000000000000000000000000000000000000000000000000000000081526004016116bb9190612121565b60405180910390fd5b505b505050505050565b60008473ffffffffffffffffffffffffffffffffffffffff163b111561187a578373ffffffffffffffffffffffffffffffffffffffff1663bc197c8187878686866040518663ffffffff1660e01b815260040161172f959493929190612c37565b6020604051808303816000875af192505050801561176b57506040513d601f19601f820116820180604052508101906117689190612c0a565b60015b6117ef573d806000811461179b576040519150601f19603f3d011682016040523d82523d6000602084013e6117a0565b606091505b5060008151036117e757846040517f57f447ce0000000000000000000000000000000000000000000000000000000081526004016117de9190612121565b60405180910390fd5b805181602001fd5b63bc197c8160e01b7bffffffffffffffffffffffffffffffffffffffffffffffffffffffff1916817bffffffffffffffffffffffffffffffffffffffffffffffffffffffff19161461187857846040517f57f447ce00000000000000000000000000000000000000000000000000000000815260040161186f9190612121565b60405180910390fd5b505b505050505050565b6000604051905090565b600080fd5b600080fd5b600073ffffffffffffffffffffffffffffffffffffffff82169050919050565b60006118c182611896565b9050919050565b6118d1816118b6565b81146118dc57600080fd5b50565b6000813590506118ee816118c8565b92915050565b6000819050919050565b611907816118f4565b811461191257600080fd5b50565b600081359050611924816118fe565b92915050565b600080604083850312156119415761194061188c565b5b600061194f858286016118df565b925050602061196085828601611915565b9150509250929050565b611973816118f4565b82525050565b600060208201905061198e600083018461196a565b92915050565b60007fffffffff0000000000000000000000000000000000000000000000000000000082169050919050565b6119c981611994565b81146119d457600080fd5b50565b6000813590506119e6816119c0565b92915050565b600060208284031215611a0257611a0161188c565b5b6000611a10848285016119d7565b91505092915050565b60008115159050919050565b611a2e81611a19565b82525050565b6000602082019050611a496000830184611a25565b92915050565b600060208284031215611a6557611a6461188c565b5b6000611a7384828501611915565b91505092915050565b600081519050919050565b600082825260208201905092915050565b60005b83811015611ab6578082015181840152602081019050611a9b565b60008484015250505050565b6000601f19601f8301169050919050565b6000611ade82611a7c565b611ae88185611a87565b9350611af8818560208601611a98565b611b0181611ac2565b840191505092915050565b60006020820190508181036000830152611b268184611ad3565b905092915050565b600080fd5b600080fd5b7f4e487b7100000000000000000000000000000000000000000000000000000000600052604160045260246000fd5b611b7082611ac2565b810181811067ffffffffffffffff82111715611b8f57611b8e611b38565b5b80604052505050565b6000611ba2611882565b9050611bae8282611b67565b919050565b600067ffffffffffffffff821115611bce57611bcd611b38565b5b611bd782611ac2565b9050602081019050919050565b82818337600083830152505050565b6000611c06611c0184611bb3565b611b98565b905082815260208101848484011115611c2257611c21611b33565b5b611c2d848285611be4565b509392505050565b600082601f830112611c4a57611c49611b2e565b5b8135611c5a848260208601611bf3565b91505092915050565b60008060408385031215611c7a57611c7961188c565b5b6000611c8885828601611915565b925050602083013567ffffffffffffffff811115611ca957611ca8611891565b5b611cb585828601611c35565b9150509250929050565b600067ffffffffffffffff821115611cda57611cd9611b38565b5b602082029050602081019050919050565b600080fd5b6000611d03611cfe84611cbf565b611b98565b90508083825260208201905060208402830185811115611d2657611d25611ceb565b5b835b81811015611d4f5780611d3b8882611915565b845260208401935050602081019050611d28565b5050509392505050565b600082601f830112611d6e57611d6d611b2e565b5b8135611d7e848260208601611cf0565b91505092915050565b600067ffffffffffffffff821115611da257611da1611b38565b5b611dab82611ac2565b9050602081019050919050565b6000611dcb611dc684611d87565b611b98565b905082815260208101848484011115611de757611de6611b33565b5b611df2848285611be4565b509392505050565b600082601f830112611e0f57611e0e611b2e565b5b8135611e1f848260208601611db8565b91505092915050565b600080600080600060a08688031215611e4457611e4361188c565b5b6000611e52888289016118df565b9550506020611e63888289016118df565b945050604086013567ffffffffffffffff811115611e8457611e83611891565b5b611e9088828901611d59565b935050606086013567ffffffffffffffff811115611eb157611eb0611891565b5b611ebd88828901611d59565b925050608086013567ffffffffffffffff811115611ede57611edd611891565b5b611eea88828901611dfa565b9150509295509295909350565b600067ffffffffffffffff821115611f1257611f11611b38565b5b602082029050602081019050919050565b6000611f36611f3184611ef7565b611b98565b90508083825260208201905060208402830185811115611f5957611f58611ceb565b5b835b81811015611f825780611f6e88826118df565b845260208401935050602081019050611f5b565b5050509392505050565b600082601f830112611fa157611fa0611b2e565b5b8135611fb1848260208601611f23565b91505092915050565b60008060408385031215611fd157611fd061188c565b5b600083013567ffffffffffffffff811115611fef57611fee611891565b5b611ffb85828601611f8c565b925050602083013567ffffffffffffffff81111561201c5761201b611891565b5b61202885828601611d59565b9150509250929050565b600081519050919050565b600082825260208201905092915050565b6000819050602082019050919050565b612067816118f4565b82525050565b6000612079838361205e565b60208301905092915050565b6000602082019050919050565b600061209d82612032565b6120a7818561203d565b93506120b28361204e565b8060005b838110156120e35781516120ca888261206d565b97506120d583612085565b9250506001810190506120b6565b5085935050505092915050565b6000602082019050818103600083015261210a8184612092565b905092915050565b61211b816118b6565b82525050565b60006020820190506121366000830184612112565b92915050565b61214581611a19565b811461215057600080fd5b50565b6000813590506121628161213c565b92915050565b6000806040838503121561217f5761217e61188c565b5b600061218d858286016118df565b925050602061219e85828601612153565b9150509250929050565b600067ffffffffffffffff8211156121c3576121c2611b38565b5b602082029050602081019050919050565b60006121e76121e2846121a8565b611b98565b9050808382526020820190506020840283018581111561220a57612209611ceb565b5b835b8181101561225157803567ffffffffffffffff81111561222f5761222e611b2e565b5b80860161223c8982611c35565b8552602085019450505060208101905061220c565b5050509392505050565b600082601f8301126122705761226f611b2e565b5b81356122808482602086016121d4565b91505092915050565b600080600080600060a086880312156122a5576122a461188c565b5b60006122b3888289016118df565b955050602086013567ffffffffffffffff8111156122d4576122d3611891565b5b6122e088828901611d59565b945050604086013567ffffffffffffffff81111561230157612300611891565b5b61230d88828901611d59565b935050606086013567ffffffffffffffff81111561232e5761232d611891565b5b61233a8882890161225b565b925050608086013567ffffffffffffffff81111561235b5761235a611891565b5b61236788828901611dfa565b9150509295509295909350565b6000806040838503121561238b5761238a61188c565b5b6000612399858286016118df565b92505060206123aa858286016118df565b9150509250929050565b600080600080600060a086880312156123d0576123cf61188c565b5b60006123de888289016118df565b95505060206123ef888289016118df565b945050604061240088828901611915565b935050606061241188828901611915565b925050608086013567ffffffffffffffff81111561243257612431611891565b5b61243e88828901611dfa565b9150509295509295909350565b6000602082840312156124615761246061188c565b5b600061246f848285016118df565b91505092915050565b7f4e487b7100000000000000000000000000000000000000000000000000000000600052602260045260246000fd5b600060028204905060018216806124bf57607f821691505b6020821081036124d2576124d1612478565b5b50919050565b7f50726f6f664f66446f6e6174696f6e4e4654313a205552492073686f756c642060008201527f6265207365740000000000000000000000000000000000000000000000000000602082015250565b6000612534602683611a87565b915061253f826124d8565b604082019050919050565b6000602082019050818103600083015261256381612527565b9050919050565b60008190508160005260206000209050919050565b60006020601f8301049050919050565b600082821b905092915050565b6000600883026125cc7fffffffffffffffffffffffffffffffffffffffffffffffffffffffffffffffff8261258f565b6125d6868361258f565b95508019841693508086168417925050509392505050565b6000819050919050565b600061261361260e612609846118f4565b6125ee565b6118f4565b9050919050565b6000819050919050565b61262d836125f8565b6126416126398261261a565b84845461259c565b825550505050565b600090565b612656612649565b612661818484612624565b505050565b5b818110156126855761267a60008261264e565b600181019050612667565b5050565b601f8211156126ca5761269b8161256a565b6126a48461257f565b810160208510156126b3578190505b6126c76126bf8561257f565b830182612666565b50505b505050565b600082821c905092915050565b60006126ed600019846008026126cf565b1980831691505092915050565b600061270683836126dc565b9150826002028217905092915050565b61271f82611a7c565b67ffffffffffffffff81111561273857612737611b38565b5b61274282546124a7565b61274d828285612689565b600060209050601f831160018114612780576000841561276e578287015190505b61277885826126fa565b8655506127e0565b601f19841661278e8661256a565b60005b828110156127b657848901518255600182019150602085019450602081019050612791565b868310156127d357848901516127cf601f8916826126dc565b8355505b6001600288020188555050505b505050505050565b60006040820190506127fd6000830185612112565b61280a6020830184612112565b9392505050565b6000604082019050612826600083018561196a565b612833602083018461196a565b9392505050565b7f4e487b7100000000000000000000000000000000000000000000000000000000600052603260045260246000fd5b7f4e487b7100000000000000000000000000000000000000000000000000000000600052601160045260246000fd5b60006128a3826118f4565b91507fffffffffffffffffffffffffffffffffffffffffffffffffffffffffffffffff82036128d5576128d4612869565b5b600182019050919050565b7f50726f6f664f66446f6e6174696f6e4e4654313a206d696e7420746f2074686560008201527f207a65726f206164647265737300000000000000000000000000000000000000602082015250565b600061293c602d83611a87565b9150612947826128e0565b604082019050919050565b6000602082019050818103600083015261296b8161292f565b9050919050565b7f50726f6f664f66446f6e6174696f6e4e4654313a2069647320616e6420616d6f60008201527f756e7473206c656e677468206d69736d61746368000000000000000000000000602082015250565b60006129ce603483611a87565b91506129d982612972565b604082019050919050565b600060208201905081810360008301526129fd816129c1565b9050919050565b7f50726f6f664f66446f6e6174696f6e4e4654313a2069647320616e642055524960008201527f73206c656e677468206d69736d61746368000000000000000000000000000000602082015250565b6000612a60603183611a87565b9150612a6b82612a04565b604082019050919050565b60006020820190508181036000830152612a8f81612a53565b9050919050565b60006040820190508181036000830152612ab08185612092565b90508181036020830152612ac48184612092565b90509392505050565b6000608082019050612ae26000830187612112565b612aef602083018661196a565b612afc604083018561196a565b612b09606083018461196a565b95945050505050565b6000612b1d826118f4565b9150612b28836118f4565b9250828201905080821115612b4057612b3f612869565b5b92915050565b600081519050919050565b600082825260208201905092915050565b6000612b6d82612b46565b612b778185612b51565b9350612b87818560208601611a98565b612b9081611ac2565b840191505092915050565b600060a082019050612bb06000830188612112565b612bbd6020830187612112565b612bca604083018661196a565b612bd7606083018561196a565b8181036080830152612be98184612b62565b90509695505050505050565b600081519050612c04816119c0565b92915050565b600060208284031215612c2057612c1f61188c565b5b6000612c2e84828501612bf5565b91505092915050565b600060a082019050612c4c6000830188612112565b612c596020830187612112565b8181036040830152612c6b8186612092565b90508181036060830152612c7f8185612092565b90508181036080830152612c938184612b62565b9050969550505050505056fea26469706673582212209b1d311d20af2bd3b5172c0235230f7e537727bd0fc4f45a1d51ad306db0db8e64736f6c6343000814003368747470733a2f2f746f6b656e2d63646e2d646f6d61696e2f7b69647d2e6a736f6e",
  "linkReferences": {},
  "deployedLinkReferences": {}
}