{
  "_format": "hh-sol-artifact-1",
  "contractName": "ProofOfDonationNFT",
  "sourceName": "contracts/ProofOfDonationNFT.sol",
  "abi": [
    {
      "inputs": [],
      "stateMutability": "nonpayable",
      "type": "constructor"
    },
    {
      "inputs": [
        {
          "internalType": "address",
          "name": "sender",
          "type": "address"
        },
        {
          "internalType": "uint256",
          "name": "balance",
          "type": "uint256"
        },
        {
          "internalType": "uint256",
          "name": "needed",
          "type": "uint256"
        },
        {
          "internalType": "uint256",
          "name": "tokenId",
          "type": "uint256"
        }
      ],
      "name": "ERC1155InsufficientBalance",
      "type": "error"
    },
    {
      "inputs": [
        {
          "internalType": "address",
          "name": "approver",
          "type": "address"
        }
      ],
      "name": "ERC1155InvalidApprover",
      "type": "error"
    },
    {
      "inputs": [
        {
          "internalType": "uint256",
          "name": "idsLength",
          "type": "uint256"
        },
        {
          "internalType": "uint256",
          "name": "valuesLength",
          "type": "uint256"
        }
      ],
      "name": "ERC1155InvalidArrayLength",
      "type": "error"
    },
    {
      "inputs": [
        {
          "internalType": "address",
          "name": "operator",
          "type": "address"
        }
      ],
      "name": "ERC1155InvalidOperator",
      "type": "error"
    },
    {
      "inputs": [
        {
          "internalType": "address",
          "name": "receiver",
          "type": "address"
        }
      ],
      "name": "ERC1155InvalidReceiver",
      "type": "error"
    },
    {
      "inputs": [
        {
          "internalType": "address",
          "name": "sender",
          "type": "address"
        }
      ],
      "name": "ERC1155InvalidSender",
      "type": "error"
    },
    {
      "inputs": [
        {
          "internalType": "address",
          "name": "operator",
          "type": "address"
        },
        {
          "internalType": "address",
          "name": "owner",
          "type": "address"
        }
      ],
      "name": "ERC1155MissingApprovalForAll",
      "type": "error"
    },
    {
      "inputs": [
        {
          "internalType": "address",
          "name": "owner",
          "type": "address"
        }
      ],
      "name": "OwnableInvalidOwner",
      "type": "error"
    },
    {
      "inputs": [
        {
          "internalType": "address",
          "name": "account",
          "type": "address"
        }
      ],
      "name": "OwnableUnauthorizedAccount",
      "type": "error"
    },
    {
      "inputs": [],
      "name": "ReentrancyGuardReentrantCall",
      "type": "error"
    },
    {
      "anonymous": false,
      "inputs": [
        {
          "indexed": true,
          "internalType": "address",
          "name": "account",
          "type": "address"
        },
        {
          "indexed": true,
          "internalType": "address",
          "name": "operator",
          "type": "address"
        },
        {
          "indexed": false,
          "internalType": "bool",
          "name": "approved",
          "type": "bool"
        }
      ],
      "name": "ApprovalForAll",
      "type": "event"
    },
    {
      "anonymous": false,
      "inputs": [
        {
          "indexed": true,
          "internalType": "address",
          "name": "to",
          "type": "address"
        },
        {
          "indexed": true,
          "internalType": "uint256",
          "name": "tokenId",
          "type": "uint256"
        },
        {
          "indexed": false,
          "internalType": "uint256",
          "name": "amount",
          "type": "uint256"
        }
      ],
      "name": "Minted",
      "type": "event"
    },
    {
      "anonymous": false,
      "inputs": [
        {
          "indexed": true,
          "internalType": "address",
          "name": "to",
          "type": "address"
        },
        {
          "indexed": false,
          "internalType": "uint256[]",
          "name": "ids",
          "type": "uint256[]"
        },
        {
          "indexed": false,
          "internalType": "uint256[]",
          "name": "amounts",
          "type": "uint256[]"
        }
      ],
      "name": "MintedBatch",
      "type": "event"
    },
    {
      "anonymous": false,
      "inputs": [
        {
          "indexed": true,
          "internalType": "address",
          "name": "previousOwner",
          "type": "address"
        },
        {
          "indexed": true,
          "internalType": "address",
          "name": "newOwner",
          "type": "address"
        }
      ],
      "name": "OwnershipTransferred",
      "type": "event"
    },
    {
      "anonymous": false,
      "inputs": [
        {
          "indexed": true,
          "internalType": "address",
          "name": "operator",
          "type": "address"
        },
        {
          "indexed": true,
          "internalType": "address",
          "name": "from",
          "type": "address"
        },
        {
          "indexed": true,
          "internalType": "address",
          "name": "to",
          "type": "address"
        },
        {
          "indexed": false,
          "internalType": "uint256[]",
          "name": "ids",
          "type": "uint256[]"
        },
        {
          "indexed": false,
          "internalType": "uint256[]",
          "name": "values",
          "type": "uint256[]"
        }
      ],
      "name": "TransferBatch",
      "type": "event"
    },
    {
      "anonymous": false,
      "inputs": [
        {
          "indexed": true,
          "internalType": "address",
          "name": "operator",
          "type": "address"
        },
        {
          "indexed": true,
          "internalType": "address",
          "name": "from",
          "type": "address"
        },
        {
          "indexed": true,
          "internalType": "address",
          "name": "to",
          "type": "address"
        },
        {
          "indexed": false,
          "internalType": "uint256",
          "name": "id",
          "type": "uint256"
        },
        {
          "indexed": false,
          "internalType": "uint256",
          "name": "value",
          "type": "uint256"
        }
      ],
      "name": "TransferSingle",
      "type": "event"
    },
    {
      "anonymous": false,
      "inputs": [
        {
          "indexed": false,
          "internalType": "string",
          "name": "value",
          "type": "string"
        },
        {
          "indexed": true,
          "internalType": "uint256",
          "name": "id",
          "type": "uint256"
        }
      ],
      "name": "URI",
      "type": "event"
    },
    {
      "inputs": [
        {
          "internalType": "address",
          "name": "account",
          "type": "address"
        },
        {
          "internalType": "uint256",
          "name": "id",
          "type": "uint256"
        }
      ],
      "name": "balanceOf",
      "outputs": [
        {
          "internalType": "uint256",
          "name": "",
          "type": "uint256"
        }
      ],
      "stateMutability": "view",
      "type": "function"
    },
    {
      "inputs": [
        {
          "internalType": "address[]",
          "name": "accounts",
          "type": "address[]"
        },
        {
          "internalType": "uint256[]",
          "name": "ids",
          "type": "uint256[]"
        }
      ],
      "name": "balanceOfBatch",
      "outputs": [
        {
          "internalType": "uint256[]",
          "name": "",
          "type": "uint256[]"
        }
      ],
      "stateMutability": "view",
      "type": "function"
    },
    {
      "inputs": [
        {
          "internalType": "address",
          "name": "account",
          "type": "address"
        },
        {
          "internalType": "address",
          "name": "operator",
          "type": "address"
        }
      ],
      "name": "isApprovedForAll",
      "outputs": [
        {
          "internalType": "bool",
          "name": "",
          "type": "bool"
        }
      ],
      "stateMutability": "view",
      "type": "function"
    },
    {
      "inputs": [
        {
          "internalType": "address",
          "name": "to",
          "type": "address"
        },
        {
          "internalType": "uint256",
          "name": "tokenId",
          "type": "uint256"
        },
        {
          "internalType": "uint256",
          "name": "amount",
          "type": "uint256"
        },
        {
          "internalType": "bytes",
          "name": "data",
          "type": "bytes"
        }
      ],
      "name": "mint",
      "outputs": [],
      "stateMutability": "nonpayable",
      "type": "function"
    },
    {
      "inputs": [
        {
          "internalType": "address",
          "name": "to",
          "type": "address"
        },
        {
          "internalType": "uint256[]",
          "name": "ids",
          "type": "uint256[]"
        },
        {
          "internalType": "uint256[]",
          "name": "amounts",
          "type": "uint256[]"
        },
        {
          "internalType": "bytes",
          "name": "data",
          "type": "bytes"
        }
      ],
      "name": "mintBatch",
      "outputs": [],
      "stateMutability": "nonpayable",
      "type": "function"
    },
    {
      "inputs": [],
      "name": "owner",
      "outputs": [
        {
          "internalType": "address",
          "name": "",
          "type": "address"
        }
      ],
      "stateMutability": "view",
      "type": "function"
    },
    {
      "inputs": [],
      "name": "renounceOwnership",
      "outputs": [],
      "stateMutability": "nonpayable",
      "type": "function"
    },
    {
      "inputs": [
        {
          "internalType": "address",
          "name": "from",
          "type": "address"
        },
        {
          "internalType": "address",
          "name": "to",
          "type": "address"
        },
        {
          "internalType": "uint256[]",
          "name": "ids",
          "type": "uint256[]"
        },
        {
          "internalType": "uint256[]",
          "name": "values",
          "type": "uint256[]"
        },
        {
          "internalType": "bytes",
          "name": "data",
          "type": "bytes"
        }
      ],
      "name": "safeBatchTransferFrom",
      "outputs": [],
      "stateMutability": "nonpayable",
      "type": "function"
    },
    {
      "inputs": [
        {
          "internalType": "address",
          "name": "from",
          "type": "address"
        },
        {
          "internalType": "address",
          "name": "to",
          "type": "address"
        },
        {
          "internalType": "uint256",
          "name": "id",
          "type": "uint256"
        },
        {
          "internalType": "uint256",
          "name": "value",
          "type": "uint256"
        },
        {
          "internalType": "bytes",
          "name": "data",
          "type": "bytes"
        }
      ],
      "name": "safeTransferFrom",
      "outputs": [],
      "stateMutability": "nonpayable",
      "type": "function"
    },
    {
      "inputs": [
        {
          "internalType": "address",
          "name": "operator",
          "type": "address"
        },
        {
          "internalType": "bool",
          "name": "approved",
          "type": "bool"
        }
      ],
      "name": "setApprovalForAll",
      "outputs": [],
      "stateMutability": "nonpayable",
      "type": "function"
    },
    {
      "inputs": [
        {
          "internalType": "uint256[]",
          "name": "tokenIds",
          "type": "uint256[]"
        },
        {
          "internalType": "string",
          "name": "newURI",
          "type": "string"
        }
      ],
      "name": "setBatchTokenURI",
      "outputs": [],
      "stateMutability": "nonpayable",
      "type": "function"
    },
    {
      "inputs": [
        {
          "internalType": "uint256",
          "name": "tokenId",
          "type": "uint256"
        },
        {
          "internalType": "string",
          "name": "newURI",
          "type": "string"
        }
      ],
      "name": "setTokenURI",
      "outputs": [],
      "stateMutability": "nonpayable",
      "type": "function"
    },
    {
      "inputs": [
        {
          "internalType": "bytes4",
          "name": "interfaceId",
          "type": "bytes4"
        }
      ],
      "name": "supportsInterface",
      "outputs": [
        {
          "internalType": "bool",
          "name": "",
          "type": "bool"
        }
      ],
      "stateMutability": "view",
      "type": "function"
    },
    {
      "inputs": [
        {
          "internalType": "address",
          "name": "newOwner",
          "type": "address"
        }
      ],
      "name": "transferOwnership",
      "outputs": [],
      "stateMutability": "nonpayable",
      "type": "function"
    },
    {
      "inputs": [
        {
          "internalType": "uint256",
          "name": "tokenId",
          "type": "uint256"
        }
      ],
      "name": "uri",
      "outputs": [
        {
          "internalType": "string",
          "name": "",
          "type": "string"
        }
      ],
      "stateMutability": "view",
      "type": "function"
    }
  ],
  "bytecode": "0x60806040523480156200001157600080fd5b50336040518060600160405280602281526020016200351d602291396200003e81620000d460201b60201c565b50600073ffffffffffffffffffffffffffffffffffffffff168173ffffffffffffffffffffffffffffffffffffffff1603620000b45760006040517f1e4fbdf7000000000000000000000000000000000000000000000000000000008152600401620000ab9190620001f4565b60405180910390fd5b620000c581620000e960201b60201c565b50600160048190555062000572565b8060029081620000e591906200048b565b5050565b6000600360009054906101000a900473ffffffffffffffffffffffffffffffffffffffff16905081600360006101000a81548173ffffffffffffffffffffffffffffffffffffffff021916908373ffffffffffffffffffffffffffffffffffffffff1602179055508173ffffffffffffffffffffffffffffffffffffffff168173ffffffffffffffffffffffffffffffffffffffff167f8be0079c531659141344cd1fd0a4f28419497f9722a3daafe3b4186f6b6457e060405160405180910390a35050565b600073ffffffffffffffffffffffffffffffffffffffff82169050919050565b6000620001dc82620001af565b9050919050565b620001ee81620001cf565b82525050565b60006020820190506200020b6000830184620001e3565b92915050565b600081519050919050565b7f4e487b7100000000000000000000000000000000000000000000000000000000600052604160045260246000fd5b7f4e487b7100000000000000000000000000000000000000000000000000000000600052602260045260246000fd5b600060028204905060018216806200029357607f821691505b602082108103620002a957620002a86200024b565b5b50919050565b60008190508160005260206000209050919050565b60006020601f8301049050919050565b600082821b905092915050565b600060088302620003137fffffffffffffffffffffffffffffffffffffffffffffffffffffffffffffffff82620002d4565b6200031f8683620002d4565b95508019841693508086168417925050509392505050565b6000819050919050565b6000819050919050565b60006200036c62000366620003608462000337565b62000341565b62000337565b9050919050565b6000819050919050565b62000388836200034b565b620003a0620003978262000373565b848454620002e1565b825550505050565b600090565b620003b7620003a8565b620003c48184846200037d565b505050565b5b81811015620003ec57620003e0600082620003ad565b600181019050620003ca565b5050565b601f8211156200043b576200040581620002af565b6200041084620002c4565b8101602085101562000420578190505b620004386200042f85620002c4565b830182620003c9565b50505b505050565b600082821c905092915050565b6000620004606000198460080262000440565b1980831691505092915050565b60006200047b83836200044d565b9150826002028217905092915050565b620004968262000211565b67ffffffffffffffff811115620004b257620004b16200021c565b5b620004be82546200027a565b620004cb828285620003f0565b600060209050601f831160018114620005035760008415620004ee578287015190505b620004fa85826200046d565b8655506200056a565b601f1984166200051386620002af565b60005b828110156200053d5784890151825560018201915060208501945060208101905062000516565b868310156200055d578489015162000559601f8916826200044d565b8355505b6001600288020188555050505b505050505050565b612f9b80620005826000396000f3fe608060405234801561001057600080fd5b50600436106100f45760003560e01c80634e1273f411610097578063a22cb46511610066578063a22cb4651461026d578063e985e9c514610289578063f242432a146102b9578063f2fde38b146102d5576100f4565b80634e1273f4146101f9578063715018a614610229578063731133e9146102335780638da5cb5b1461024f576100f4565b8063162094c4116100d3578063162094c4146101895780631f7fdffa146101a55780632eb2c2d6146101c15780634a6b77f8146101dd576100f4565b8062fdd58e146100f957806301ffc9a7146101295780630e89341c14610159575b600080fd5b610113600480360381019061010e9190611c06565b6102f1565b6040516101209190611c55565b60405180910390f35b610143600480360381019061013e9190611cc8565b61034b565b6040516101509190611d10565b60405180910390f35b610173600480360381019061016e9190611d2b565b61042d565b6040516101809190611de8565b60405180910390f35b6101a3600480360381019061019e9190611f3f565b6104d2565b005b6101bf60048036038101906101ba9190612104565b61057b565b005b6101db60048036038101906101d691906121bf565b6106a8565b005b6101f760048036038101906101f2919061228e565b610750565b005b610213600480360381019061020e91906123c9565b61084d565b60405161022091906124ff565b60405180910390f35b61023161095c565b005b61024d60048036038101906102489190612521565b610970565b005b610257610a9b565b60405161026491906125b3565b60405180910390f35b610287600480360381019061028291906125fa565b610ac5565b005b6102a3600480360381019061029e919061263a565b610adb565b6040516102b09190611d10565b60405180910390f35b6102d360048036038101906102ce919061267a565b610b6f565b005b6102ef60048036038101906102ea9190612711565b610c17565b005b600080600083815260200190815260200160002060008473ffffffffffffffffffffffffffffffffffffffff1673ffffffffffffffffffffffffffffffffffffffff16815260200190815260200160002054905092915050565b60007fd9b67a26000000000000000000000000000000000000000000000000000000007bffffffffffffffffffffffffffffffffffffffffffffffffffffffff1916827bffffffffffffffffffffffffffffffffffffffffffffffffffffffff1916148061041657507f0e89341c000000000000000000000000000000000000000000000000000000007bffffffffffffffffffffffffffffffffffffffffffffffffffffffff1916827bffffffffffffffffffffffffffffffffffffffffffffffffffffffff1916145b80610426575061042582610c9d565b5b9050919050565b606060056000838152602001908152602001600020805461044d9061276d565b80601f01602080910402602001604051908101604052809291908181526020018280546104799061276d565b80156104c65780601f1061049b576101008083540402835291602001916104c6565b820191906000526020600020905b8154815290600101906020018083116104a957829003601f168201915b50505050509050919050565b6104da610d07565b600081511161051e576040517f08c379a000000000000000000000000000000000000000000000000000000000815260040161051590612810565b60405180910390fd5b8060056000848152602001908152602001600020908161053e91906129dc565b50817f6bb7ff708619ba0610cba295a58592e0451dee2622938c8755667688daf3529b8260405161056f9190611de8565b60405180910390a25050565b610583610d07565b61058b610d8e565b600073ffffffffffffffffffffffffffffffffffffffff168473ffffffffffffffffffffffffffffffffffffffff16036105fa576040517f08c379a00000000000000000000000000000000000000000000000000000000081526004016105f190612b20565b60405180910390fd5b815183511461063e576040517f08c379a000000000000000000000000000000000000000000000000000000000815260040161063590612bb2565b60405180910390fd5b61064a84848484610dd4565b8373ffffffffffffffffffffffffffffffffffffffff167f9d15fe863d6d778932c2425aab5de66f2fcc03f779b90c593d26ee152fbbe8718484604051610692929190612bd2565b60405180910390a26106a2610e5a565b50505050565b60006106b2610e64565b90508073ffffffffffffffffffffffffffffffffffffffff168673ffffffffffffffffffffffffffffffffffffffff16141580156106f757506106f58682610adb565b155b1561073b5780866040517fe237d922000000000000000000000000000000000000000000000000000000008152600401610732929190612c09565b60405180910390fd5b6107488686868686610e6c565b505050505050565b610758610d07565b600081511161079c576040517f08c379a000000000000000000000000000000000000000000000000000000000815260040161079390612810565b60405180910390fd5b60005b82518110156108485781600560008584815181106107c0576107bf612c32565b5b6020026020010151815260200190815260200160002090816107e291906129dc565b508281815181106107f6576107f5612c32565b5b60200260200101517f6bb7ff708619ba0610cba295a58592e0451dee2622938c8755667688daf3529b8360405161082d9190611de8565b60405180910390a2808061084090612c90565b91505061079f565b505050565b6060815183511461089957815183516040517f5b059991000000000000000000000000000000000000000000000000000000008152600401610890929190612cd8565b60405180910390fd5b6000835167ffffffffffffffff8111156108b6576108b5611e14565b5b6040519080825280602002602001820160405280156108e45781602001602082028036833780820191505090505b50905060005b8451811015610951576109216109098287610f6490919063ffffffff16565b61091c8387610f7890919063ffffffff16565b6102f1565b82828151811061093457610933612c32565b5b6020026020010181815250508061094a90612c90565b90506108ea565b508091505092915050565b610964610d07565b61096e6000610f8c565b565b610978610d07565b610980610d8e565b600073ffffffffffffffffffffffffffffffffffffffff168473ffffffffffffffffffffffffffffffffffffffff16036109ef576040517f08c379a00000000000000000000000000000000000000000000000000000000081526004016109e690612b20565b60405180910390fd5b60008211610a32576040517f08c379a0000000000000000000000000000000000000000000000000000000008152600401610a2990612d73565b60405180910390fd5b610a3e84848484611052565b828473ffffffffffffffffffffffffffffffffffffffff167f25b428dfde728ccfaddad7e29e4ac23c24ed7fd1a6e3e3f91894a9a073f5dfff84604051610a859190611c55565b60405180910390a3610a95610e5a565b50505050565b6000600360009054906101000a900473ffffffffffffffffffffffffffffffffffffffff16905090565b610ad7610ad0610e64565b83836110eb565b5050565b6000600160008473ffffffffffffffffffffffffffffffffffffffff1673ffffffffffffffffffffffffffffffffffffffff16815260200190815260200160002060008373ffffffffffffffffffffffffffffffffffffffff1673ffffffffffffffffffffffffffffffffffffffff16815260200190815260200160002060009054906101000a900460ff16905092915050565b6000610b79610e64565b90508073ffffffffffffffffffffffffffffffffffffffff168673ffffffffffffffffffffffffffffffffffffffff1614158015610bbe5750610bbc8682610adb565b155b15610c025780866040517fe237d922000000000000000000000000000000000000000000000000000000008152600401610bf9929190612c09565b60405180910390fd5b610c0f868686868661125b565b505050505050565b610c1f610d07565b600073ffffffffffffffffffffffffffffffffffffffff168173ffffffffffffffffffffffffffffffffffffffff1603610c915760006040517f1e4fbdf7000000000000000000000000000000000000000000000000000000008152600401610c8891906125b3565b60405180910390fd5b610c9a81610f8c565b50565b60007f01ffc9a7000000000000000000000000000000000000000000000000000000007bffffffffffffffffffffffffffffffffffffffffffffffffffffffff1916827bffffffffffffffffffffffffffffffffffffffffffffffffffffffff1916149050919050565b610d0f610e64565b73ffffffffffffffffffffffffffffffffffffffff16610d2d610a9b565b73ffffffffffffffffffffffffffffffffffffffff1614610d8c57610d50610e64565b6040517f118cdaa7000000000000000000000000000000000000000000000000000000008152600401610d8391906125b3565b60405180910390fd5b565b600260045403610dca576040517f3ee5aeb500000000000000000000000000000000000000000000000000000000815260040160405180910390fd5b6002600481905550565b600073ffffffffffffffffffffffffffffffffffffffff168473ffffffffffffffffffffffffffffffffffffffff1603610e465760006040517f57f447ce000000000000000000000000000000000000000000000000000000008152600401610e3d91906125b3565b60405180910390fd5b610e54600085858585611366565b50505050565b6001600481905550565b600033905090565b600073ffffffffffffffffffffffffffffffffffffffff168473ffffffffffffffffffffffffffffffffffffffff1603610ede5760006040517f57f447ce000000000000000000000000000000000000000000000000000000008152600401610ed591906125b3565b60405180910390fd5b600073ffffffffffffffffffffffffffffffffffffffff168573ffffffffffffffffffffffffffffffffffffffff1603610f505760006040517f01a83514000000000000000000000000000000000000000000000000000000008152600401610f4791906125b3565b60405180910390fd5b610f5d8585858585611366565b5050505050565b600060208202602084010151905092915050565b600060208202602084010151905092915050565b6000600360009054906101000a900473ffffffffffffffffffffffffffffffffffffffff16905081600360006101000a81548173ffffffffffffffffffffffffffffffffffffffff021916908373ffffffffffffffffffffffffffffffffffffffff1602179055508173ffffffffffffffffffffffffffffffffffffffff168173ffffffffffffffffffffffffffffffffffffffff167f8be0079c531659141344cd1fd0a4f28419497f9722a3daafe3b4186f6b6457e060405160405180910390a35050565b600073ffffffffffffffffffffffffffffffffffffffff168473ffffffffffffffffffffffffffffffffffffffff16036110c45760006040517f57f447ce0000000000000000000000000000000000000000000000000000000081526004016110bb91906125b3565b60405180910390fd5b6000806110d18585611418565b915091506110e3600087848487611366565b505050505050565b600073ffffffffffffffffffffffffffffffffffffffff168273ffffffffffffffffffffffffffffffffffffffff160361115d5760006040517fced3e10000000000000000000000000000000000000000000000000000000000815260040161115491906125b3565b60405180910390fd5b80600160008573ffffffffffffffffffffffffffffffffffffffff1673ffffffffffffffffffffffffffffffffffffffff16815260200190815260200160002060008473ffffffffffffffffffffffffffffffffffffffff1673ffffffffffffffffffffffffffffffffffffffff16815260200190815260200160002060006101000a81548160ff0219169083151502179055508173ffffffffffffffffffffffffffffffffffffffff168373ffffffffffffffffffffffffffffffffffffffff167f17307eab39ab6107e8899845ad3d59bd9653f200f220920489ca2b5937696c318360405161124e9190611d10565b60405180910390a3505050565b600073ffffffffffffffffffffffffffffffffffffffff168473ffffffffffffffffffffffffffffffffffffffff16036112cd5760006040517f57f447ce0000000000000000000000000000000000000000000000000000000081526004016112c491906125b3565b60405180910390fd5b600073ffffffffffffffffffffffffffffffffffffffff168573ffffffffffffffffffffffffffffffffffffffff160361133f5760006040517f01a8351400000000000000000000000000000000000000000000000000000000815260040161133691906125b3565b60405180910390fd5b60008061134c8585611418565b9150915061135d8787848487611366565b50505050505050565b61137285858585611448565b600073ffffffffffffffffffffffffffffffffffffffff168473ffffffffffffffffffffffffffffffffffffffff16146114115760006113b0610e64565b905060018451036114005760006113d1600086610f7890919063ffffffff16565b905060006113e9600086610f7890919063ffffffff16565b90506113f98389898585896117f6565b505061140f565b61140e8187878787876119aa565b5b505b5050505050565b60608060405191506001825283602083015260408201905060018152826020820152604081016040529250929050565b805182511461149257815181516040517f5b059991000000000000000000000000000000000000000000000000000000008152600401611489929190612cd8565b60405180910390fd5b600061149c610e64565b905060005b83518110156116b15760006114bf8286610f7890919063ffffffff16565b905060006114d68386610f7890919063ffffffff16565b9050600073ffffffffffffffffffffffffffffffffffffffff168873ffffffffffffffffffffffffffffffffffffffff161461160357600080600084815260200190815260200160002060008a73ffffffffffffffffffffffffffffffffffffffff1673ffffffffffffffffffffffffffffffffffffffff168152602001908152602001600020549050818110156115ab57888183856040517f03dee4c50000000000000000000000000000000000000000000000000000000081526004016115a29493929190612d93565b60405180910390fd5b81810360008085815260200190815260200160002060008b73ffffffffffffffffffffffffffffffffffffffff1673ffffffffffffffffffffffffffffffffffffffff16815260200190815260200160002081905550505b600073ffffffffffffffffffffffffffffffffffffffff168773ffffffffffffffffffffffffffffffffffffffff161461169e578060008084815260200190815260200160002060008973ffffffffffffffffffffffffffffffffffffffff1673ffffffffffffffffffffffffffffffffffffffff16815260200190815260200160002060008282546116969190612dd8565b925050819055505b5050806116aa90612c90565b90506114a1565b5060018351036117705760006116d1600085610f7890919063ffffffff16565b905060006116e9600085610f7890919063ffffffff16565b90508573ffffffffffffffffffffffffffffffffffffffff168773ffffffffffffffffffffffffffffffffffffffff168473ffffffffffffffffffffffffffffffffffffffff167fc3d58168c5ae7397731d063d5bbf3d657854427343f4c083240f7aacaa2d0f628585604051611761929190612cd8565b60405180910390a450506117ef565b8373ffffffffffffffffffffffffffffffffffffffff168573ffffffffffffffffffffffffffffffffffffffff168273ffffffffffffffffffffffffffffffffffffffff167f4a39dc06d4c0dbc64b70af90fd698a233a518aa5d07e595d983b8c0526c8f7fb86866040516117e6929190612bd2565b60405180910390a45b5050505050565b60008473ffffffffffffffffffffffffffffffffffffffff163b11156119a2578373ffffffffffffffffffffffffffffffffffffffff1663f23a6e6187878686866040518663ffffffff1660e01b8152600401611857959493929190612e61565b6020604051808303816000875af192505050801561189357506040513d601f19601f820116820180604052508101906118909190612ed0565b60015b611917573d80600081146118c3576040519150601f19603f3d011682016040523d82523d6000602084013e6118c8565b606091505b50600081510361190f57846040517f57f447ce00000000000000000000000000000000000000000000000000000000815260040161190691906125b3565b60405180910390fd5b805181602001fd5b63f23a6e6160e01b7bffffffffffffffffffffffffffffffffffffffffffffffffffffffff1916817bffffffffffffffffffffffffffffffffffffffffffffffffffffffff1916146119a057846040517f57f447ce00000000000000000000000000000000000000000000000000000000815260040161199791906125b3565b60405180910390fd5b505b505050505050565b60008473ffffffffffffffffffffffffffffffffffffffff163b1115611b56578373ffffffffffffffffffffffffffffffffffffffff1663bc197c8187878686866040518663ffffffff1660e01b8152600401611a0b959493929190612efd565b6020604051808303816000875af1925050508015611a4757506040513d601f19601f82011682018060405250810190611a449190612ed0565b60015b611acb573d8060008114611a77576040519150601f19603f3d011682016040523d82523d6000602084013e611a7c565b606091505b506000815103611ac357846040517f57f447ce000000000000000000000000000000000000000000000000000000008152600401611aba91906125b3565b60405180910390fd5b805181602001fd5b63bc197c8160e01b7bffffffffffffffffffffffffffffffffffffffffffffffffffffffff1916817bffffffffffffffffffffffffffffffffffffffffffffffffffffffff191614611b5457846040517f57f447ce000000000000000000000000000000000000000000000000000000008152600401611b4b91906125b3565b60405180910390fd5b505b505050505050565b6000604051905090565b600080fd5b600080fd5b600073ffffffffffffffffffffffffffffffffffffffff82169050919050565b6000611b9d82611b72565b9050919050565b611bad81611b92565b8114611bb857600080fd5b50565b600081359050611bca81611ba4565b92915050565b6000819050919050565b611be381611bd0565b8114611bee57600080fd5b50565b600081359050611c0081611bda565b92915050565b60008060408385031215611c1d57611c1c611b68565b5b6000611c2b85828601611bbb565b9250506020611c3c85828601611bf1565b9150509250929050565b611c4f81611bd0565b82525050565b6000602082019050611c6a6000830184611c46565b92915050565b60007fffffffff0000000000000000000000000000000000000000000000000000000082169050919050565b611ca581611c70565b8114611cb057600080fd5b50565b600081359050611cc281611c9c565b92915050565b600060208284031215611cde57611cdd611b68565b5b6000611cec84828501611cb3565b91505092915050565b60008115159050919050565b611d0a81611cf5565b82525050565b6000602082019050611d256000830184611d01565b92915050565b600060208284031215611d4157611d40611b68565b5b6000611d4f84828501611bf1565b91505092915050565b600081519050919050565b600082825260208201905092915050565b60005b83811015611d92578082015181840152602081019050611d77565b60008484015250505050565b6000601f19601f8301169050919050565b6000611dba82611d58565b611dc48185611d63565b9350611dd4818560208601611d74565b611ddd81611d9e565b840191505092915050565b60006020820190508181036000830152611e028184611daf565b905092915050565b600080fd5b600080fd5b7f4e487b7100000000000000000000000000000000000000000000000000000000600052604160045260246000fd5b611e4c82611d9e565b810181811067ffffffffffffffff82111715611e6b57611e6a611e14565b5b80604052505050565b6000611e7e611b5e565b9050611e8a8282611e43565b919050565b600067ffffffffffffffff821115611eaa57611ea9611e14565b5b611eb382611d9e565b9050602081019050919050565b82818337600083830152505050565b6000611ee2611edd84611e8f565b611e74565b905082815260208101848484011115611efe57611efd611e0f565b5b611f09848285611ec0565b509392505050565b600082601f830112611f2657611f25611e0a565b5b8135611f36848260208601611ecf565b91505092915050565b60008060408385031215611f5657611f55611b68565b5b6000611f6485828601611bf1565b925050602083013567ffffffffffffffff811115611f8557611f84611b6d565b5b611f9185828601611f11565b9150509250929050565b600067ffffffffffffffff821115611fb657611fb5611e14565b5b602082029050602081019050919050565b600080fd5b6000611fdf611fda84611f9b565b611e74565b9050808382526020820190506020840283018581111561200257612001611fc7565b5b835b8181101561202b57806120178882611bf1565b845260208401935050602081019050612004565b5050509392505050565b600082601f83011261204a57612049611e0a565b5b813561205a848260208601611fcc565b91505092915050565b600067ffffffffffffffff82111561207e5761207d611e14565b5b61208782611d9e565b9050602081019050919050565b60006120a76120a284612063565b611e74565b9050828152602081018484840111156120c3576120c2611e0f565b5b6120ce848285611ec0565b509392505050565b600082601f8301126120eb576120ea611e0a565b5b81356120fb848260208601612094565b91505092915050565b6000806000806080858703121561211e5761211d611b68565b5b600061212c87828801611bbb565b945050602085013567ffffffffffffffff81111561214d5761214c611b6d565b5b61215987828801612035565b935050604085013567ffffffffffffffff81111561217a57612179611b6d565b5b61218687828801612035565b925050606085013567ffffffffffffffff8111156121a7576121a6611b6d565b5b6121b3878288016120d6565b91505092959194509250565b600080600080600060a086880312156121db576121da611b68565b5b60006121e988828901611bbb565b95505060206121fa88828901611bbb565b945050604086013567ffffffffffffffff81111561221b5761221a611b6d565b5b61222788828901612035565b935050606086013567ffffffffffffffff81111561224857612247611b6d565b5b61225488828901612035565b925050608086013567ffffffffffffffff81111561227557612274611b6d565b5b612281888289016120d6565b9150509295509295909350565b600080604083850312156122a5576122a4611b68565b5b600083013567ffffffffffffffff8111156122c3576122c2611b6d565b5b6122cf85828601612035565b925050602083013567ffffffffffffffff8111156122f0576122ef611b6d565b5b6122fc85828601611f11565b9150509250929050565b600067ffffffffffffffff82111561232157612320611e14565b5b602082029050602081019050919050565b600061234561234084612306565b611e74565b9050808382526020820190506020840283018581111561236857612367611fc7565b5b835b81811015612391578061237d8882611bbb565b84526020840193505060208101905061236a565b5050509392505050565b600082601f8301126123b0576123af611e0a565b5b81356123c0848260208601612332565b91505092915050565b600080604083850312156123e0576123df611b68565b5b600083013567ffffffffffffffff8111156123fe576123fd611b6d565b5b61240a8582860161239b565b925050602083013567ffffffffffffffff81111561242b5761242a611b6d565b5b61243785828601612035565b9150509250929050565b600081519050919050565b600082825260208201905092915050565b6000819050602082019050919050565b61247681611bd0565b82525050565b6000612488838361246d565b60208301905092915050565b6000602082019050919050565b60006124ac82612441565b6124b6818561244c565b93506124c18361245d565b8060005b838110156124f25781516124d9888261247c565b97506124e483612494565b9250506001810190506124c5565b5085935050505092915050565b6000602082019050818103600083015261251981846124a1565b905092915050565b6000806000806080858703121561253b5761253a611b68565b5b600061254987828801611bbb565b945050602061255a87828801611bf1565b935050604061256b87828801611bf1565b925050606085013567ffffffffffffffff81111561258c5761258b611b6d565b5b612598878288016120d6565b91505092959194509250565b6125ad81611b92565b82525050565b60006020820190506125c860008301846125a4565b92915050565b6125d781611cf5565b81146125e257600080fd5b50565b6000813590506125f4816125ce565b92915050565b6000806040838503121561261157612610611b68565b5b600061261f85828601611bbb565b9250506020612630858286016125e5565b9150509250929050565b6000806040838503121561265157612650611b68565b5b600061265f85828601611bbb565b925050602061267085828601611bbb565b9150509250929050565b600080600080600060a0868803121561269657612695611b68565b5b60006126a488828901611bbb565b95505060206126b588828901611bbb565b94505060406126c688828901611bf1565b93505060606126d788828901611bf1565b925050608086013567ffffffffffffffff8111156126f8576126f7611b6d565b5b612704888289016120d6565b9150509295509295909350565b60006020828403121561272757612726611b68565b5b600061273584828501611bbb565b91505092915050565b7f4e487b7100000000000000000000000000000000000000000000000000000000600052602260045260246000fd5b6000600282049050600182168061278557607f821691505b6020821081036127985761279761273e565b5b50919050565b7f50726f6f664f66446f6e6174696f6e4e46543a205552492073686f756c64206260008201527f6520736574000000000000000000000000000000000000000000000000000000602082015250565b60006127fa602583611d63565b91506128058261279e565b604082019050919050565b60006020820190508181036000830152612829816127ed565b9050919050565b60008190508160005260206000209050919050565b60006020601f8301049050919050565b600082821b905092915050565b6000600883026128927fffffffffffffffffffffffffffffffffffffffffffffffffffffffffffffffff82612855565b61289c8683612855565b95508019841693508086168417925050509392505050565b6000819050919050565b60006128d96128d46128cf84611bd0565b6128b4565b611bd0565b9050919050565b6000819050919050565b6128f3836128be565b6129076128ff826128e0565b848454612862565b825550505050565b600090565b61291c61290f565b6129278184846128ea565b505050565b5b8181101561294b57612940600082612914565b60018101905061292d565b5050565b601f8211156129905761296181612830565b61296a84612845565b81016020851015612979578190505b61298d61298585612845565b83018261292c565b50505b505050565b600082821c905092915050565b60006129b360001984600802612995565b1980831691505092915050565b60006129cc83836129a2565b9150826002028217905092915050565b6129e582611d58565b67ffffffffffffffff8111156129fe576129fd611e14565b5b612a08825461276d565b612a1382828561294f565b600060209050601f831160018114612a465760008415612a34578287015190505b612a3e85826129c0565b865550612aa6565b601f198416612a5486612830565b60005b82811015612a7c57848901518255600182019150602085019450602081019050612a57565b86831015612a995784890151612a95601f8916826129a2565b8355505b6001600288020188555050505b505050505050565b7f50726f6f664f66446f6e6174696f6e4e46543a206d696e7420746f207468652060008201527f7a65726f20616464726573730000000000000000000000000000000000000000602082015250565b6000612b0a602c83611d63565b9150612b1582612aae565b604082019050919050565b60006020820190508181036000830152612b3981612afd565b9050919050565b7f50726f6f664f66446f6e6174696f6e4e46543a2069647320616e6420616d6f7560008201527f6e7473206c656e677468206d69736d6174636800000000000000000000000000602082015250565b6000612b9c603383611d63565b9150612ba782612b40565b604082019050919050565b60006020820190508181036000830152612bcb81612b8f565b9050919050565b60006040820190508181036000830152612bec81856124a1565b90508181036020830152612c0081846124a1565b90509392505050565b6000604082019050612c1e60008301856125a4565b612c2b60208301846125a4565b9392505050565b7f4e487b7100000000000000000000000000000000000000000000000000000000600052603260045260246000fd5b7f4e487b7100000000000000000000000000000000000000000000000000000000600052601160045260246000fd5b6000612c9b82611bd0565b91507fffffffffffffffffffffffffffffffffffffffffffffffffffffffffffffffff8203612ccd57612ccc612c61565b5b600182019050919050565b6000604082019050612ced6000830185611c46565b612cfa6020830184611c46565b9392505050565b7f50726f6f664f66446f6e6174696f6e4e46543a206d696e7420616d6f756e742060008201527f6d75737420626520706f73697469766500000000000000000000000000000000602082015250565b6000612d5d603083611d63565b9150612d6882612d01565b604082019050919050565b60006020820190508181036000830152612d8c81612d50565b9050919050565b6000608082019050612da860008301876125a4565b612db56020830186611c46565b612dc26040830185611c46565b612dcf6060830184611c46565b95945050505050565b6000612de382611bd0565b9150612dee83611bd0565b9250828201905080821115612e0657612e05612c61565b5b92915050565b600081519050919050565b600082825260208201905092915050565b6000612e3382612e0c565b612e3d8185612e17565b9350612e4d818560208601611d74565b612e5681611d9e565b840191505092915050565b600060a082019050612e7660008301886125a4565b612e8360208301876125a4565b612e906040830186611c46565b612e9d6060830185611c46565b8181036080830152612eaf8184612e28565b90509695505050505050565b600081519050612eca81611c9c565b92915050565b600060208284031215612ee657612ee5611b68565b5b6000612ef484828501612ebb565b91505092915050565b600060a082019050612f1260008301886125a4565b612f1f60208301876125a4565b8181036040830152612f3181866124a1565b90508181036060830152612f4581856124a1565b90508181036080830152612f598184612e28565b9050969550505050505056fea26469706673582212208d58de7b3f762fac5bb84bd486f64ce514f9d798ebddbd086df59d1a790e7d1364736f6c6343000814003368747470733a2f2f746f6b656e2d63646e2d646f6d61696e2f7b69647d2e6a736f6e",
  "linkReferences": {},
  "deployedLinkReferences": {}
}